:020000040800F2
:10000000D01D0020C5010008570800084F0800084F
:10001000530800083F080008310A000800000000EB
:10002000000000000000000000000000910800082F
:100030004B0800080000000085080008950800082B
:10004000DF010008DF010008DF010008DF01000810
:10005000DF010008DF010008DF010008DF01000800
:10006000DF010008DF010008DF010008DF010008F0
:10007000DF010008DF010008DF010008DF010008E0
:10008000DF010008DF010008DF010008DF010008D0
:10009000DF010008DF010008DF010008DF010008C0
:1000A000DF010008DF010008DF010008DF010008B0
:1000B000DF010008DF010008DF010008DF010008A0
:1000C000DF010008DF010008DF010008DF01000890
:1000D000DF010008290A0008DF010008DF0100082D
:1000E000DF010008DF010008DF010008DF01000870
:1000F000DF010008DF010008DF010008DF01000860
:10010000DF01000889080008DF010008DF0100089E
:10011000DF010008DF010008DF010008DF0100083F
:10012000DF010008DF010008DF010008DF0100082F
:10013000DF010008DF010008DF010008DF0100081F
:10014000DF010008DF010008DF010008DF0100080F
:10015000DF010008DF01000843080008DF01000894
:10016000DF010008DF010008DF010008DF010008EF
:10017000DF010008DF010008DF01000800000000C7
:10018000DF010008DF010008DF010008DF010008CF
:10019000DF010008DF010008DF01000800000000A7
:1001A000DF010008DF010008DF010008DFF810D0E0
:1001B00000F07AFA00480047192E0008AFF30080DB
:1001C000D01D00200648804706480047FEE7FEE7AE
:1001D000FEE7FEE7FEE7FEE7FEE7FEE7FEE7FEE7F7
:1001E000A1080008AD0100082DE9F0410024061B1C
:1001F000254671F1000605DA01240027D0EB07003F
:1002000067EB0101161E73F1000605DA0027D2EB39
:100210000702012567EB030300F05DF886460E46F2
:1002200017469C46AC4204D00025D0EB050E65EB8A
:10023000010624B10020D2EB000760EB030C7046EE
:1002400031463A466346BDE8F08140EA01039B0728
:1002500003D009E008C9121F08C0042AFAD203E03B
:1002600011F8013B00F8013B521EF9D27047D2B29F
:1002700001E000F8012B491EFBD270470022F6E78F
:1002800010B513460A4604461946FFF7F0FF20460C
:1002900010BD10B5044604E00B7800F8013B03B133
:1002A000491C521EF8D2204610BD30B50B460146FF
:1002B00000202022012409E021FA02F59D4205D305
:1002C00003FA02F5491B04FA02F52844151EA2F1AF
:1002D0000102F1DC30BD2DE9F05F054600209246B9
:1002E0009B4688460646814640241BE028464146F8
:1002F0004746224600F0F9F953465A46C01A914142
:1003000010D311461846224600F0E0F92D1A67EB8B
:1003100001084F4622460120002100F0D7F917EBD3
:1003200000094E41201EA4F10104DFDC484631469D
:100330002A464346BDE8F09F2DE9FE4F804681EAFC
:100340000300C00F0C46009021F0004123F000454F
:10035000B8EB0200A94105D24046214690461C4612
:100360000B46024623F00040104347D0270DC7F349
:100370000A00C3F30A510290401A019040286BDA38
:10038000C3F3130040F4801B0098924620B1002371
:10039000D2EB030A63EB0B0B01985946C0F1400204
:1003A000504600F093F906460D4650465946019ACC
:1003B00000F0ABF910EB08006141002487EA11520C
:1003C00084EAE7731A4340D0009A62B3019A012A83
:1003D0004FEA075215DC001B61EB02014FF00042AF
:1003E00002EA0752CDE90042001C41F58011324675
:1003F0002B4600F0ABF903B0BDE8F08F4046214634
:10040000F9E7001B61EB0201001C41F580130018A5
:100410005B412018A2F5001747EB030140EAD570B5
:10042000B6196D4111E06D084FEA360645EAC07510
:100430004FEA0752001B61EB0201001C41F58011DD
:1004400049084FEA30000019514132462B4603B0AB
:10045000BDE8F04F00F06BB9009801224000002386
:10046000D0EB020263EBE073009821464FEAE074A0
:10047000B8EB000061EB0401E9E783F000435BE7C0
:1004800081F0004158E72DE9FE4F81EA030404F0B2
:10049000004421F0004100944FF0000B23F0004392
:1004A00050EA01045ED052EA03045BD0C3F30A545D
:1004B000C1F30A552C44A4F2F3340194A0FB025476
:1004C000C1F3130141F48011C3F3130343F4801308
:1004D00001FB024400FB034E840A970A44EA81545C
:1004E00047EA8357A4FB076802958D0A05FB078539
:1004F0004FEA932C04FB0C542705029D4FEA065843
:1005000047EA1637B5EB08056EEB070C870E920E1F
:1005100047EA811742EA8312A7FB0201B6EB0B01FF
:1005200064EB00042B0D43EA0C335E1844EB1C50C3
:10053000DA465146E7FB0201C5F313044FEA0B33D9
:1005400043EA14534FEA0432019C43EA0603A4F140
:100550000C040294009CCDE900B400F0F7F803B05D
:10056000BDE8F08F00200146F9E72DE9F04D81EA62
:10057000030404F0004B21F0004514464FF0000A3C
:1005800023F0004150EA050220D054EA01021DD0B8
:10059000C5F30A570246C5F31303C1F31300C1F3B1
:1005A0000A5640F4801543F48013A7EB0608101B8D
:1005B000D64608F2FD3873EB050002D308F10108B6
:1005C00001E092185B41B8F1000F03DA0020014608
:1005D000BDE8F08D00204FF48011064684460EE001
:1005E000171B73EB050705D3121B63EB05030643CB
:1005F0004CEA010C49084FEA300092185B4150EA7E
:100600000107EDD152EA030012D082EA040083EA26
:100610000501084305D0101BAB4106D2012200237F
:1006200006E000224FF0004302E06FF00102531099
:100630001AEB06004CEB085110EB0A0041EB0B01E2
:10064000BDE8F04D00F073B8C1F30A52C1F31301D5
:1006500040F2FF3341F480119A4202DA0020014651
:10066000704740F233439A42A2F2334202DC5242D4
:1006700000F03BB800F02AB830B5041E71F1000458
:1006800004DB4FF00044404264EB0101141E73F19F
:10069000000405DB1C464FF00043524263EB0403A9
:1006A000994208BF904230BD064C074D06E0E06815
:1006B00040F0010394E8070098471034AC42F6D3A9
:1006C000FFF778FD0869000828690008202A04DB84
:1006D000203A00FA02F1002070479140C2F1200355
:1006E00020FA03F3194390407047202A04DB203A94
:1006F00021FA02F00021704721FA02F3D040C2F142
:1007000020029140084319467047202A06DBCB1788
:10071000203A41FA02F043EAE07306E041FA02F3BC
:10072000D040C2F12002914008431946704710B5ED
:10073000141E73F1000408DA401C41F10001921804
:100740005B411A4301D120F0010010BD2DE9F04DAD
:1007500092469B4611B1B1FA81F202E0B0FA80F202
:1007600020329046FFF7B2FF04460F4640EA0A00E7
:1007700041EA0B0153465A46084313D0114653EA47
:10078000010019D0C8F140025046FFF7AEFF054600
:100790000E46504659464246FFF798FF084305D09B
:1007A000012004E020463946BDE8F08D00200543D5
:1007B00046EAE0762C4337430A986305E40AA0EB47
:1007C00008000022FD0A44EA47540A3002D50020FE
:1007D0000146E9E7010510196941DDE908450019FD
:1007E0006941BDE8F04DA2E770B58C1810F8015BC7
:1007F00015F0070301D110F8013B2A1106D110F8BA
:10080000012B03E010F8016B01F8016B5B1EF9D1BD
:100810002B0705D40023521E0DD401F8013BFAE743
:1008200010F8013BCB1A921C03E013F8015B01F8AE
:10083000015B521EF9D5A142D8D3002070BD00BF84
:10084000FEE710B505F03CF810BD00BFFEE700BFA5
:10085000FEE700BFFEE700BFFEE7000010B500287E
:1008600007DA0A07140E054A00F00F031B1FD454C1
:1008700003E00A07130E024A135410BD18ED00E0FE
:1008800000E400E000BFFEE710B504F027FC10BD57
:1008900000BFFEE710B501F07BF902F013FA10BDBE
:1008A0001CB55D48006840F470005B4908605B4817
:1008B000006840F001005949086000BF57480068CF
:1008C00000F002000028F9D054480830006800F019
:1008D0000C0008286ED100BF0020019002E00198B2
:1008E000401C019001985028F9D34C48083000680A
:1008F0000090009820F0F0000090009840F08000F8
:10090000009046490831009808600020019002E0FC
:100910000198401C019001985028F9D33F480830B5
:1009200000680090009820F0F0000090009840F0DF
:10093000900000903949083100980860002001902B
:1009400002E00198401C019001985028F9D33348E7
:10095000083000680090009820F0F00000900098A7
:1009600040F0A00000902D49083100980860002058
:10097000019002E00198401C019001985028F9D3A1
:100980002648083000680090009820F0F0000090A1
:10099000009840F0B00000902049083100980860AD
:1009A0000020019002E00198401C0190019850281D
:1009B000F9D300BF19480830006820F00300174938
:1009C00008310860C82000F0AFFC144800681449E2
:1009D0000840124908600846006820F4802008603A
:1009E00000200E490831086000BF0C48083000683C
:1009F00000200028F9D10B480849091D0860002093
:100A000006490C31086004F095FD00214FF00060AC
:100A100002F00EFC1CBD000088ED00E00038024032
:100A2000FFFFF6FE1030002410B504F057FE10BD95
:100A300000BFFEE77CB50C001D461646014601D0FE
:100A4000601E00E00020CDE90010064B6A462946F2
:100A5000304600F0DBF8002C02D0009A0021117023
:100A60007CBD00001313000802E008C8121F08C173
:100A7000002AFAD170477047002001E001C1121F1F
:100A8000002AFBD1704700002DE9FF5F82B00021F2
:100A9000DDE90430020DDDF840B0034318D044F620
:100AA0001050A2F2FF3242431514119801281FD0B2
:100AB000A5EB0B00401C5FEA000A4FF000064E4F0A
:100AC000DFF83891B046504615D5CAF1000413E05E
:100AD000119801244AA3012801D16FEA0B01029861
:100AE000119AC0E90031C0E9024206B0BDE8F09FAA
:100AF000CBF10000DFE704460021404A491842EBF1
:100B00000450CDE9001012E0E00707D032463B4622
:100B100040464946FFF7B7FC8046894632463B4689
:100B200010461946FFF7AFFC06460F466410002C2E
:100B3000EAD1DDE90401DDE90023BAF1000F06DAAC
:100B4000FFF7A1FC42464B46FFF79DFC05E0FFF78F
:100B50000CFD42464B46FFF708FD04460E460022B8
:100B6000284BFFF789FD03D84FF0FF30014607E01F
:100B70000022254B20463146FFF7DEFBFFF764FDE0
:100B8000102409E0002C0ADB0A220023FFF7A3FB54
:100B9000039B30321A55641E50EA0102F2D1641CE4
:100BA000039AC4F111031444119A012A03D00122BB
:100BB00008430DD10AE0084304D000204FF0110B88
:100BC000119072E7A3EB0B056D1E0DE05B4504DD94
:100BD0004FF0000205F1010504E003DA4FF00002D6
:100BE000A5F10105002AECD002981199C0E9023163
:100BF000C0E9004579E70000000014400000F03F24
:100C0000300000000000F0430000E03F2DE9FF4FFE
:100C100095B09A46884606460025EEE1252877D10C
:100C200000242746F94A0121039400E0044316F802
:100C3000013F203B01FA03F01042F7D130782A2817
:100C400011D06FF02F033078A0F13002092A16D8A6
:100C5000039A44F0020402EB820203EB42021044C6
:100C6000761C0390EFE758F8042B0392002A03DA6E
:100C7000504244F40054039044F00204761C30784F
:100C80002E2816D116F8010F44F004042A280DD09E
:100C90006FF02F023078A0F13003092B09D807EB51
:100CA000870302EB4303C718761CF3E758F8047B6D
:100CB000761C30786C280FD006DC4C2817D06828BA
:100CC0000DD06A2814D104E0742810D07A280FD1EE
:100CD0000DE044F400140AE044F4801401E044F40C
:100CE00040147278824202D104F58014761C761C7E
:100CF000307866280BD013DC582877D009DC002820
:100D000075D04528F6D04628F4D047281AD193E16B
:100D100018E0632835D0642879D0652812D18BE19A
:100D2000702873D008DC6728F1D069286FD06E284E
:100D30000DD06F2806D1ACE073282CD0752874D064
:100D4000782853D05246179990476D1C54E1C4F34C
:100D50000250022809D003280DD0D8F8001004282A
:100D60000DD00D6008F1040846E1D8F80010EA172C
:100D7000C1E90052F6E7D8F800100D80F2E70D70D7
:100D8000F0E718F8041B8DF8001000208DF8010022
:100D9000EB46012003E058F804BB4FF0FF30610739
:100DA0004FF0000102D40DE009F101018946B9427A
:100DB0000FDA8145F8DB1BF809100029F4D108E0AF
:100DC00009F1010189468142FADB1BF8091000296B
:100DD000F6D103985346A0EB090721463846179AE7
:100DE00000F080FA284400EB090507E044E008E140
:100DF0000DE01BF8010B524617999047B9F1010914
:100E0000F7D2534621463846179AF2E039E00A21D4
:100E1000C4F302524FF0000B0091022A06D058F89A
:100E2000040BC117032A09D00AE023E008F10700E8
:100E300020F00702F2E80201904605E000B2C11777
:100E4000042A01D140B2C117002906DA0A4600215E
:100E5000404261EB02012D2202E0220504D52B2243
:100E60008DF80420012203E0E20701D02022F7E7F9
:100E7000914657E00A2100E010214FF0000B00914D
:100E80000BE010214FF0000B44F004040827009100
:100E900003E008204FF0000B0090C4F30252022A36
:100EA00005D058F8040B0021032A08D008E008F107
:100EB000070020F00702F2E80201904603E080B24A
:100EC000042A00D1C0B24FF0000922072AD5327897
:100ED000702A07D0DDF800C08CF0100C5CEA0B0C17
:100EE00005D00EE040228DF80420012208E050EAEF
:100EF000010306D030238DF804308DF8052002223E
:100F00009146009B83F0080353EA0B030AD150EA91
:100F1000010201D1620705D530228DF804204FF07F
:100F200001097F1E3278582A04D039A20C920CAAEB
:100F300002920BE03BA2F9E75B46009AFFF7CBF980
:100F40000C9B9B5C029A521E0292137050EA0102A3
:100F5000F2D1029804A9081A00F1200B600702D50B
:100F600024F4803400E001275F4502DDA7EB0B008D
:100F700000E0002000EB0B01009003984944401A68
:100F80000390E00306D453462146179A039800F0D5
:100F9000A9F90544002706E001A85246C05D17994B
:100FA00090476D1C7F1C4F45F6DBE0030CD5534684
:100FB0002146179A039800F095F9054404E0302083
:100FC0005246179990476D1C0099481E00900029C1
:100FD000F5DC08E00298029952460078491C02911B
:100FE000179990476D1CBBF10001ABF1010BF1DCCF
:100FF0005BE100F065F90544761C307800287FF449
:101000000DAE19B02846BDE8F08F00000928010098
:10101000303132333435363738396162636465666E
:101020000000000030313233343536373839414230
:101030004344454600000000600700D4062708F13D
:10104000070020F00700F0E80223804603F0004C80
:101050005FEA0C0001D097A009E0200501D596A019
:1010600005E0E00701D095A001E0AFF24C0013903D
:10107000307823F0004365280CD006DC452809D0E1
:1010800046281DD047287FD13BE0662818D0672826
:101090007AD136E00021112F01DB112000E0781C0D
:1010A000CDE9000104A90CA8FFF7EEFCDDE90D0174
:1010B0000C9A4FF0000B07F10109109200914EE0DD
:1010C0004FF000400097CDE9011004A90CA8FFF7EC
:1010D000DBFCDDE90D020C9B0F994FF0000B9146F4
:1010E0001093009211B9791C00EB0109B7EB0900CC
:1010F00003D4C0F1FF3B07F10109A9EB0700019000
:1011000042E0012F00DA01270021112F01DD11201B
:1011100000E03846CDE9000104A90CA8FFF7B4FCB3
:10112000DDE90D010C9A00914FF0000BB9461092C9
:1011300021070FD4009A4A4503DA914601E0A9F14C
:101140000109B9F1010F05DD109AA9F10101515C06
:101150003029F4D0B84202DA10F1040F03DA012189
:10116000CDE9011010E0002803DC8344A9EB000165
:1011700002E0411C494500DD8946A0EB0B00401C04
:1011800001904FF000400290200705D40198484597
:1011900002DB4FF0FF30019000208DF84B000298E9
:1011A0000DF14B07B0F1004F25D002200C902B2001
:1011B0000D90029800280CDA404202902D200D90EC
:1011C00007E00A210298FFF770F83031029007F823
:1011D000011D0C99481E0C900029F2DC0298002891
:1011E000EFD1791E0D980870307800F0200040F0A3
:1011F000450007F8020D11A8C01BC01D02901398EE
:10120000007800B1012000EB0901019801EBE071C9
:10121000029801440398401A401E0390E00306D44C
:1012200053462146179A039800F05CF8054413983A
:10123000007818B15246179990476D1CE00323D5EA
:1012400053462146179A039800F04CF805441BE0DA
:10125000BBF1000F07DB0098584504DD1098179983
:1012600010F80B0001E01799302052469047019882
:101270000BF1010B401E05F10105019004D12E2058
:101280005246179990476D1CB9F10001A9F1010967
:10129000DEDC05E017F8010B5246179990476D1CEC
:1012A0000299481E02900029F4DC53462146179A01
:1012B00003989EE62D0000002B0000002000000097
:1012C0002DE9F041044600251E461746880404D443
:1012D00005E039462020B0476D1C641EF9D528462C
:1012E000BDE8F0812DE9F041044600251E469046F8
:1012F000C80301D5302700E02027880404D505E085
:1013000041463846B0476D1C641EF9D52846BDE8F5
:10131000F0814A68002A06D00A68531C0B601070DE
:101320004868401E4860704708B50021009102E0FF
:101330000099491C009100EB8001009AB2EB410F2B
:10134000F6D308BD10B500F0D1F910BD816841F0A9
:101350000801816000BF816801F008010029FAD10D
:10136000816841F00401816000BF816801F00401DF
:101370000029FAD1704730B5012902D0022920D1C5
:101380000FE06AB1102A0BD8C36A23F47003C3625A
:10139000C36A541E4FF4700505EA04542343C36224
:1013A00010E06AB1042A0BD8836B23F440138363E3
:1013B000836B541E4FF4401505EA045423438363A2
:1013C00000E000BF00BF30BD0649096821F4E021FC
:1013D000054AC2F804131146D1F804130143C2F8B8
:1013E00004137047042301400020014021B18268AA
:1013F00042F40062826003E0826822F4006282604C
:101400007047816841F4807181607047816841F460
:10141000007181607047816801F0010119B981682C
:1014200041F0010181607047012902D0022912D1E7
:1014300008E0836823F040538360836843EA0273C3
:10144000836009E0836823F440138360836843EA80
:101450000253836000E000BF00BF704708B5054835
:101460000088ADF8000003484088ADF802000098FD
:1014700008BD00000000002000B589B040F6024021
:1014800003F016F941F2081003F012F940F6164085
:1014900003F00EF94FF44030FFF796FF01230022CE
:1014A0000321374801F0ADFA0021364800F0D5FBA2
:1014B000684600F0B1FE00200690334802900120FB
:1014C00003903248009001200190C0020490012056
:1014D0000790400408906A4600212A4800F0F0FD79
:1014E0000021284800F0A9FB00221146254800F001
:1014F00081FB0021234800F06DFB002000F0E4F8A0
:101500000122022121484C3800F0B0F800224FF4AB
:1015100080711E484C3800F0A9F800211B484C3857
:10152000FFF764FF0122114618484C38FFF723FFEC
:1015300001230A22002115484C3800F02FF8002220
:10154000012112484C38FFF76FFF10484C38FFF765
:101550005DFF0E484C38FFF754FF0C484C38FFF73E
:101560005AFF012000F00AFB08484C38FFF7EEFE56
:10157000012106484C3800F067F809B000BD0000B2
:1015800000080240006402406C0100204C20014031
:1015900001480088704700006C010020F0B51D462E
:1015A00006290CDA436B01EB81071F26BE40B343CB
:1015B00001EB810602FA06F63343436322E00C296D
:1015C0000EDA036B8E1F06EB86071F26BE40B34361
:1015D0008E1F06EB860602FA06F63343036311E01C
:1015E00010290FDAC36AA1F10C0606EB86071F2645
:1015F000BE40B343A1F10C0606EB860602FA06F6DE
:101600003343C3620A2A0CDA046902EB4207072655
:10161000BE40B44302EB420605FA06F634430461C9
:1016200011E0122A0FDCC468A2F10A0606EB460795
:101630000726BE40B443A2F10A0606EB460605FAA9
:1016400006F63443C460F0BD012902D002290AD154
:1016500004E0826842F08042826005E0826842F4E1
:101660008002826000E000BF00BF7047AAB101F4B1
:1016700080731BB1436843F48073436001F480635B
:101680001BB1436843F48063436001F00203CBB1B4
:10169000836843F00203836014E001F480731BB19C
:1016A000436823F48073436001F480631BB1436893
:1016B00023F48063436001F002031BB1836823F0CD
:1016C00002038360704700000649096821F01F018A
:1016D000054AC2F804131146D1F804130143C2F8B5
:1016E00004137047042301400020014008B5FFF7B0
:1016F0004FFFADF80000BDF8000000F00DF8ADF8A8
:101700000200BDF8000003490880BDF802004880CF
:1017100008BD000000000020014640F6E4404843B8
:1017200040F6FF72B0FBF2F080B2704710B500F0E7
:1017300025F8034B034A0721034800F09DF810BD2C
:101740004D170008111800080800002070B5044665
:101750000D4604B970BD35B1012D05D0022D04D060
:10176000032D07D105E006E005E0207800F060F8E1
:1017700001E000E000BF00BF00BFEBE710B540F69E
:10178000044002F095FF40F6014002F091FF4FF453
:10179000406002F08DFF4AF68023012200210848B4
:1017A00001F02FF901231A460021064801F029F91A
:1017B00001231A460021044801F023F910BD00005E
:1017C00000100240000402400000024001460729C8
:1017D00001D2012070470020FCE7000010B504464C
:1017E0002046FFF7F3FF08B9002010BD064A52F863
:1017F0002410064A52F8240001F0FAF808B9012032
:10180000F3E70020F1E70000E45D0008C85D000890
:1018100010B504460CB9002010BD2078FFF7DEFF9C
:10182000FAE710B503F0B2FE044600F081F810BDEF
:1018300010B50446072C1BD2DFE804F00405090D9F
:101840001115160015E0012001F070FA11E00220D8
:1018500001F06CFA0DE0032001F068FA09E00420C1
:1018600001F064FA05E000BF052001F05FFA00E036
:1018700000BF00BF10BD00002DE9F04706460F462F
:10188000904699461C4806601C4807701C48C0F8E2
:1018900000801C48C0F800901748006810B1184834
:1018A000006830B900201449086014490870BDE888
:1018B000F087002519E01048006800EB0514204669
:1018C00000F022F8824684F802A000206070E070E8
:1018D0006060A060A08908B91420A081E08910B9D7
:1018E0004FF47A70E081681CC5B2044800788542E4
:1018F000E1DB00BFDBE70000980100209C01002035
:10190000A0010020A401002010B50446074800688B
:1019100000B10CB9002010BD204604490968884771
:1019200008B10120F7E70020F5E70000A001002042
:101930002DE9F04105462548006810B124480068AB
:1019400008B9BDE8F08100273AE02048006800EBC4
:1019500007142046FFF7D8FF0646A078B04201D012
:10196000A67065606078B04219D06068281AA189B5
:10197000884214D36670607838B1A5600020E070AA
:101980000021204600F028F809E00121204600F05F
:1019900023F8E07818B90221204600F01DF860789D
:1019A00060B1E07850B9A068281AE189884205D36F
:1019B0000120E0700321204600F00EF8781CC7B229
:1019C000044800788742C0DB00BFBAE798010020D6
:1019D000A00100209C01002070B504460D4604487B
:1019E000006820B129462046014A1268904770BD20
:1019F000A401002010B500F07BF810BD69B922B138
:101A0000012A04D0022A06D103E0836004E0C36007
:101A100002E0036100E000BF0FE001290DD122B117
:101A2000012A04D0022A06D103E0436104E0836165
:101A300002E0C36100E000BF00BF704710B504467C
:101A40000748204440B940F61D0002F055FE40F61C
:101A50001D0002F03FFE00E000BF00BF10BD00000F
:101A6000008CFFBF21B9026822F48052026005E0B9
:101A7000012903D1026822F080520260704721B927
:101A8000026842F00102026005E0012903D1026808
:101A900042F480320260704710B54FF4406002F0AB
:101AA00007FE41F21D0002F003FE10230022032175
:101AB0000D4800F0A6FF0D48FFF7C0FF00210B48BE
:101AC00000F026F800210948FFF7CCFF002211465C
:101AD000064800F02AF800210448FFF7D0FF002054
:101AE00000F038F810BD0000000002400074004013
:101AF00008B5FFF7B3FC0090BDF80000034908806B
:101B00000846008800F026F808BD00000400002008
:101B100021B9026822F00402026005E0012903D124
:101B2000026822F480220260704739B9036823F00A
:101B3000C003036003681343036009E0012907D170
:101B4000036823F440030360036843EA024303602D
:101B50007047000010B50446B4F5805F01D340F62D
:101B6000FF74044804802346002211460248FFF710
:101B700045FF10BD6E01002000740040034908605D
:101B800000BF024909680029FBD1704760010020AD
:101B900006480068401C054908600548006820B1F7
:101BA00003480068401E0249086070476401002035
:101BB0006001002010B501EB4102D30000F11002DA
:101BC000D25822F0010301EB4102D40000F11002CF
:101BD000135110BD10B501EB4102D30000F110020A
:101BE000D25842F0010301EB4102D40000F110028F
:101BF000135110BD30B5134601EB4104E50000F16F
:101C00001004625922F0606242EA436201EB41042F
:101C1000E50000F11004625130BD10B501EB410246
:101C2000D30000F11002D25822F4807301EB41027C
:101C3000D40000F11002135110BD10B501EB4102A8
:101C4000D30000F11002D25842F4807301EB41023C
:101C5000D40000F11002135110BD10B501EB410288
:101C6000D30000F11002D25822F0010301EB41022F
:101C7000D40000F110021351002301EB4102D40003
:101C800000F11002135101EB4102D40000F11402E3
:101C9000135101EB4102D40000F11802135101EB82
:101CA0004102D40000F11C02135101EB4102D400A7
:101CB00000F120021351212301EB4102D40000F175
:101CC0002402135104290CDA01EB41025300C1F341
:101CD000400203EB82033D229A4083681A438260EC
:101CE0000DE00A1FD1B201EB41025300C1F34002E3
:101CF00003EB82033D229A40C3681A43C26010BDC1
:101D000010B504290CDA01EB41035C00C1F3400378
:101D100004EB830302FA03F38468234383600DE03A
:101D20000B1FD9B201EB41035C00C1F3400304EB8C
:101D3000830302FA03F3C4682343C36010BD30B5C4
:101D40000346002004290FDA01EB41046500C1F3CA
:101D5000400405EB840402FA04F41D682C400CB125
:101D6000012012E0002010E00C1FE1B201EB410461
:101D70006500C1F3400405EB840402FA04F45D68D5
:101D80002C400CB1012000E0002030BD30B5802A8D
:101D90000DD001EB4103DC0000F110031B5993430C
:101DA00001EB4104E50000F1100463510CE001EB8C
:101DB0004103DC0000F124031B59934301EB410470
:101DC000E50000F12404635130BD30B5802A0DD008
:101DD00001EB4103DC0000F110031B59134301EB3D
:101DE0004104E50000F1100463510CE001EB4103F4
:101DF000DC0000F124031B59134301EB4104E5000F
:101E000000F12404635130BD10B504290CDA01EB54
:101E100041035C00C1F3400304EB830302FA03F3C4
:101E20008468234383600DE00B1FD9B201EB4103AB
:101E30005C00C1F3400304EB830302FA03F3C468BC
:101E40002343C36010BDF0B50346002000250026E3
:101E50000C46042970DA082A3CD004DC012A07D099
:101E6000042A6AD11DE0102A4DD0202A7FD165E0D6
:101E700001EB41074FEA470CC1F340070CEB870722
:101E800002FA07F7D3F800C007EA0C0601EB410796
:101E90004FEAC70C03F1240757F80C7007F08005D0
:101EA00066E001EB41074FEA470CC1F340070CEB3A
:101EB000870702FA07F7D3F800C007EA0C0601EB20
:101EC00041074FEAC70C03F1100757F80C7007F0F1
:101ED00002054DE001EB41074FEA470CC1F3400713
:101EE0000CEB870702FA07F7D3F800C007EA0C06E5
:101EF00001EB41074FEAC70C03F1100757F80C70CC
:101F000007F0040534E001EB41074FEA470CC1F349
:101F100040070CEB870702FA07F7D3F800C007EA7F
:101F20000C0601EB41074FEAC70C03F1100757F805
:101F30000C7007F008051BE01BE018E001EB4107FF
:101F40004FEA470CC1F340070CEB870702FA07F78B
:101F5000D3F800C007EA0C0601EB41074FEAC70CB3
:101F600003F1100757F80C7007F0100500E000BFF0
:101F70008FE0271FFCB2082A3CD004DC012A07D0DE
:101F8000042A7ED11DE0102A4DD0202A7FD163E0A3
:101F900004EB44074FEA470CC4F340070CEB8707F8
:101FA00002FA07F7D3F804C007EA0C0601EB410771
:101FB0004FEAC70C03F1240757F80C7007F08005AF
:101FC00066E004EB44074FEA470CC4F340070CEB10
:101FD000870702FA07F7D3F804C007EA0C0601EBFB
:101FE00041074FEAC70C03F1100757F80C7007F0D0
:101FF00002054DE004EB44074FEA470CC4F34007E9
:102000000CEB870702FA07F7D3F804C007EA0C06BF
:1020100001EB41074FEAC70C03F1100757F80C70AA
:1020200007F0040534E004EB44074FEA470CC4F31F
:1020300040070CEB870702FA07F7D3F804C007EA5A
:102040000C0601EB41074FEAC70C03F1100757F8E4
:102050000C7007F008051BE004EB44074FEA470C3F
:10206000C4F340070CEB870702FA07F7D3F804C064
:1020700007EA0C0601EB41074FEAC70C03F1100712
:1020800000E004E057F80C7007F0100500E000BF16
:1020900000BF16B10DB1012000E00020F0BD30B549
:1020A00032B101EB4104E50000F12004635105E089
:1020B00001EB4104E50000F11C04635130BD000058
:1020C00070B501EB4104E50000F12404645924F0EB
:1020D000040501EB4104E60000F12404A55101EBE5
:1020E0004104E60000F118041568A55101EB410414
:1020F000E60000F11C049568A55101EB4104E600DF
:1021000000F11404D569A55101EB4104E50000F18B
:10211000100463593F4C2340146944EA8404156A4F
:102120002C4395692C43234301EB4104E50000F166
:1021300010046351546874B901EB4104E50000F1E7
:102140001004645944F4007501EB4104E60000F109
:102150001004A5511FE05468012C0ED101EB41047D
:10216000E50000F11004645924F4007501EB41040A
:10217000E60000F11004A5510DE001EB4104E5007B
:1021800000F11004645944F4004501EB4104E600F9
:1021900000F11004A551D46874B901EB4104E500C5
:1021A00000F11004645944F4806501EB4104E60039
:1021B00000F11004A5510DE001EB4104E50000F130
:1021C0001004645924F4806501EB4104E60000F139
:1021D0001004A551546974B901EB4104E50000F104
:1021E0001004645944F4807501EB4104E60000F1E9
:1021F0001004A5510DE001EB4104E50000F11004CD
:10220000645924F4807501EB4104E60000F11004E8
:10221000A55170BD3F87FCFF002101600121416095
:10222000002181600121C160002101610121416122
:1022300000218161C1610162704710B501EB41036A
:10224000DC0000F114031A5110BD024601EB4100FD
:10225000C30002F11400C05870470000002001497B
:10226000087070478A01002010B54FF48051024871
:1022700000F0B7FB10BD00000004024000B587B0BD
:1022800040F6014002F014FA41F20E0002F010FA9A
:102290004FF4604205211F4800F072FB4FF4604389
:1022A000002202211B4800F0ACFB4FF460430222E5
:1022B0000021184800F0CCFB4FF48053002201218C
:1022C000144800F09EFB4FF4805302220021114875
:1022D00000F0BEFBFFF7C8FF0F4803F02BF800200B
:1022E00001904FF48270009000200290032005902E
:1022F0004FF4007003900820069000200490694677
:10230000054803F076F8044803F008F8FFF7A6FF45
:1023100007B000BD000402400038004010B54FF483
:102320008051024800F05BFB10BD00000004024039
:1023300010B504460121022000F086F808B90020FB
:1023400010BD2146074802F0F2FF0121084600F0C7
:102350007BF808B90020F3E7024802F0E4FFC0B2BE
:10236000EEE700000038004010B50446182202498C
:102370002046FDF76AFF10BDB415002070B5FFF7C9
:102380007DFF00F029F80446204600F041F805469C
:102390001048046045604FF480500E498860001179
:1023A000C8600DB9002000E0280B0A4908612CB173
:1023B0006FF07F40844201D0012000E000200549F9
:1023C00008750846007D08B1002070BD4FF0FF3051
:1023D000FBE70000B415002070B5FFF73FFFFFF7E3
:1023E0009DFF9F20FFF7A4FFA520FFF7A1FF044654
:1023F000A520FFF79DFF0546A520FFF799FF06469C
:10240000FFF732FF200440EA0520304370BD000092
:1024100001460C48084430B1012807D0022808D0F2
:1024200003280CD108E04FF4001070474FF48000EF
:10243000FBE74FF40000F8E74FF08070F5E700206D
:10244000F3E70000EBBF37FF70B504460D46094EB9
:1024500007E0701E061E04D1012007490870002005
:1024600070BD2146054802F0BBFFA842F1D1012012
:10247000F6E70000A08601008A0100200038004035
:1024800010B500F079F800200E4908600E49086088
:10249000012000F0DBF80D4908600A48006800F0F0
:1024A0009DF9044600F0F2F903F070F80749096855
:1024B00008440749086003F069F800F57A70054997
:1024C000086010BD4C010020500100205801002080
:1024D000540100205C01002000B587B040F60440A4
:1024E00002F0E6F841F20D1002F0E2F86422052154
:1024F0001B4800F045FA642300220221184800F02E
:1025000080FA642302220021154800F0A1FA10236A
:1025100000220121124800F074FA10230222002147
:102520000F4800F095FA00F01FF80E4802F002FF85
:10253000002001904FF48270009000200290012052
:1025400005904002039010200690002004906946F8
:10255000044802F04EFF034802F0E0FE07B000BD61
:10256000001002400034014010B51021014800F075
:1025700038FA10BD0010024010B54AF6CA411220C8
:1025800000F0E8F9142000F06BF8044644F0400134
:10259000142000F0DFF903480349C86001204874A3
:1025A000887410BDA02526007C02002010B586B0DE
:1025B000044610480088ADF804000E4840680290B8
:1025C0000C48806803900B48C06804900948007C60
:1025D0008DF814000748407C8DF815000548807C74
:1025E0008DF81600142201A92046FDF72EFE06B034
:1025F00010BD00007C02002010B50346042B00D360
:102600000023072900D30121082A00D307224FF411
:10261000804404EB0334A0B24FF6FF7404EA412473
:10262000204300BF40EA421040F0080040F00200A2
:1026300040F0010010BD00000146072900D3012130
:10264000014850F821007047185E0008014608292B
:1026500000D30721014850F821007047345E00087C
:102660001FB504460A4903C9CDE90201ADF80A4085
:102670000020009001900322694602A800F020F992
:102680000120FFF77BFABDF8040004B010BD000084
:10269000A05D00082DE9F0418AB005A8FFF786FF8C
:1026A000079D2B269DF8240010B90AB0BDE8F081E3
:1026B000002D02DA2D266C4200E02C46642094FBAB
:1026C000F0F100FB114794FBF0F89DF8260008B1EB
:1026D00008A100E008A10898CDE901870096CDE99E
:1026E0000301BDF9142005A11348069B03F04CF823
:1026F00000BFDAE74F4E00004F46460050543130DD
:10270000303A207261773D2564206164633D256C19
:102710006475562074656D703D2563256C642E25A7
:1027200030326C6443206578747265663D256C6454
:1027300075562025730D0A00001001402DE9F04167
:1027400004460D462846FFF777FF84FB00600746E6
:102750004FF40042002330463946FDF745FD06465A
:102760003046BDE8F08100002DE9F04104460F46F7
:10277000154639462846FFF7E1FF064604EB4400BC
:10278000104921F8205004EB440001EB8000466022
:1027900004EB440001EB80000772012004EB4401CC
:1027A000084A02EB810148724CB90748058046602F
:1027B000304601F0D5FC0449886001200874BDE86A
:1027C000F08100004C0200207C02002010B5102196
:1027D000014800F004F910BD0010024070B5044635
:1027E00004B10024044800EB4405697828780122EC
:1027F000FFF702FF70BD0000245D00082DE9F041E5
:1028000002F0C4FE04461B480068201A01D5BDE84A
:10281000F08119481949096800EB4105184800681A
:10282000FFF7DCFF074600F031F806B26978287838
:102830003246FFF799FF12480068104908601048B7
:102840000068401C0E4908600846006808B1002076
:1028500008600C4800682044064908600A4800687F
:10286000201A05D404F57A7007490860FFF712FFB3
:1028700000BFCCE754010020245D00084C0100207B
:1028800050010020580100205C01002070B5044672
:10289000FFF79CFF201200F041F80502E0B200F0C3
:1028A0003DF8054300BF8021044802F099FD01284E
:1028B000F9D0FFF759FE284670BD000000340140F2
:1028C0002DE9F04705460E461746FFF77FFF002427
:1028D00014E04FF000080DB135F814804FEA2820BD
:1028E00000F01CF84FEA002908F0FF0000F016F88D
:1028F00040EA09090EB126F81490641CBC42E8D3E2
:1029000000BF8021044802F06BFD0128F9D0FFF7D9
:102910002BFEBDE8F08700000034014010B50446EE
:1029200000BF02210A4802F05BFD0028F9D02146D1
:10293000074802F0FCFC00BF0121054802F050FDF1
:102940000028F9D0024802F0EEFCC0B210BD000031
:10295000003401407CB505460C46084903C9CDE961
:102960000001ADF80250ADF8044003220021684692
:10297000FFF7A6FF0120FFF701F97CBD985D000875
:10298000F0B503461C6A5D6A00200DE00126864012
:1029900016403EB187000F26BE40B443860001FAC0
:1029A00006F63443461CB0B20828EFD3082011E0E5
:1029B0000126864016405EB1A0F10806B7000F263A
:1029C000BE40B543A0F10806B60001FA06F635434D
:1029D000461CB0B21028EBD31C625D62F0BD816270
:1029E0007047816170470AB1816100E08162704780
:1029F0000246002013690B400BB1012000E00020CB
:102A00007047F0B504460D4616462168E26800207E
:102A100019E0012787401F409FB14FEA400C032770
:102A200007FA0CF7B943470005FA07F739434FEAAD
:102A3000400C032707FA0CF7BA43470006FA07F7DA
:102A40003A43471CB8B21028E3D32160E260F0BDDE
:102A5000F0B50C461546012C03D146681E4346606E
:102A600002E046689E434660826800210DE0012630
:102A70008E401E403EB14F000326BE40B2434E0082
:102A800005FA06F632434E1CB1B21029EFD382602C
:102A9000F0BD0A460021016821F480611143016004
:102AA000704700002DE9F05F04460E469346022071
:102AB00001F08CFC07463148B7FBF0F9B9F13C0F47
:102AC00001D34FF03C09D4F804A02AF03F0A4AEAA7
:102AD000090AC4F804A02A4886421ED82748B7FB32
:102AE000F0F000F10108B8F13C0F02D33C20206265
:102AF00007E0B8F1020F02D80220206201E0C4F81A
:102B000020807000B7FBF0F5042D00D20425E069A9
:102B1000C5F30B010843E0612EE01A4886422BD82A
:102B20004FF4967009FB00F04FF47A71B0FBF1F0AE
:102B3000401C2062BBF1000F08D106EB4600B7FB3A
:102B4000F0F5E06920F48040E06109E006EBC600A2
:102B500000EB0610B7FBF0F5E06940F48040E0615F
:102B6000C5F30B0008B945F00105E06940F40040E9
:102B7000E061E0692843E061BDE8F09F40420F005A
:102B8000A0860100801A060010B5044613482044B0
:102B900030B1B0F5806F0CD0B0F5006F1BD111E0F3
:102BA00040F6150001F0A8FD40F6150001F092FD79
:102BB00012E040F6160001F09FFD40F6160001F00D
:102BC00089FD09E040F6170001F096FD40F6170078
:102BD00001F080FD00E000BF00BF10BD00ACFFBFF2
:102BE0000A460021416821F40061114341607047A9
:102BF0000A460021416821F4805111434160704729
:102C0000016841F001010160704710B540F20152C6
:102C1000914202D1426982690AE000EB9112126886
:102C200001F01F040123A3409A4300EB91131A60A3
:102C300010BD30B5024602EB91131B6801F01F0571
:102C40000124AC4023400BB1012000E0002030BD46
:102C500012F1020F02D121F0010101E041F0010166
:102C60000161704730B50C460021016821F0020176
:102C700021430160C3F3090342EA0305856030BDC7
:102C8000016841F4807101607047016841F400718E
:102C90000160704710B500F071F800240DE00020CD
:102CA000074901EB04110870054800EB0410417856
:102CB000204600F093F8601CC4B2062CEFDB10BD78
:102CC0007800002070B500252BE0174800EB0514B4
:102CD0002078012800D022E0E088401C80B2E0800B
:102CE000A188884200DA1AE00020E080607880F055
:102CF000010060706178284600F070F8207B00B118
:102D00000DE06078A178884208D1A06810B1A06871
:102D1000401EA060A06808B90020207000BF681C99
:102D2000C5B2062DD1DB70BD7800002070B5044619
:102D3000204600F03FF800B970BD00F049F80546A4
:102D400000200D4901EB041108700B4800EB041042
:102D5000407880F00100084901EB041148702846D2
:102D600000F056F8044800EB04104178204600F0CB
:102D700035F800BFE0E700007800002010B540F60D
:102D8000034001F095FC4FF47C53002201210848D8
:102D9000FFF737FE4FF47C53022200210448FFF76F
:102DA00057FE4FF47C510248FFF719FE10BD00009A
:102DB000000C02400146062901D201207047002084
:102DC000FCE70146062901D2012070470020FCE7FC
:102DD00000BFEFF31081084672B6704770B5044625
:102DE0000D462046FFF7EDFF00B970BD0DB1012083
:102DF00000E000200246044850F824100348FFF782
:102E0000F2FD00BFF1E70000005E0008000C024088
:102E100000B962B6704700008CB0002402F08EFB4F
:102E2000FFF738FF02F0F2FB02F0B6FB47A14B4878
:102E300002F0AAFC4AA1494802F0A6FCFFF79EFA5C
:102E400006466846FFF790FA1822694606A8FDF77D
:102E5000FCF907980090324647A14048069B02F0D3
:102E600093FC51A13D4802F08FFCFFF735FBFFF7C3
:102E700007FB53A1394802F087FC56A1374802F0FE
:102E800083FCFEF7F9FAFEF75DFA57A1334802F02A
:102E90007BFC5AA1314802F077FCFEF7FDFDFEF7FE
:102EA000A9FD5BA12D4802F06FFC5EA12B4802F04A
:102EB0006BFC01F057FD054601F0EEFC01F0BCFF94
:102EC00007463B462A465CA1244802F05DFCC82028
:102ED000FEF754FE02F0F4F8FEF728FC5DA11F484F
:102EE00002F052FC00F08EFD88B901245FA11B485E
:102EF00002F04AFC00F044FA61A000231A46194689
:102F00000090082000F070FF01F030F803E05FA1AE
:102F1000124802F039FC62A1104802F035FC6FA1A2
:102F20000E4802F031FC5CB100F02AFA54A00023F4
:102F30001A4619460090082000F056FF01F016F8D6
:102F400002F064F801E002F073F8FCE7424F4F54DE
:102F50003A2073746172740D0A0000000010014081
:102F6000424F4F543A20666C61736820696E6974F1
:102F70002E2E2E0D0A000000424F4F543A20666C50
:102F800061736820646F6E65202825642C20696455
:102F90003D30782530366C582C2073697A653D2594
:102FA0006C75290D0A000000424F4F543A206764A7
:102FB000333020696E69742E2E2E0D0A0000000039
:102FC000424F4F543A206764333020646F6E650D72
:102FD0000A000000424F4F543A2061646320696E3A
:102FE00069742E2E2E0D0A00424F4F543A20616410
:102FF0006320646F6E650D0A00000000424F4F545D
:103000003A2064616320696E69742E2E2E0D0A00C9
:10301000424F4F543A2064616320646F6E650D0A1D
:1030200000000000424F4F543A2072746320696ED2
:1030300069742E2E2E0D0A00424F4F543A2072749E
:103040006320646F6E65202825642C202573290D6C
:103050000A000000424F4F543A206F6C65642069AB
:103060006E69742E2E2E0D0A00000000424F4F5440
:103070003A206F6C656420646F6E650D0A00000075
:10308000424F4F543A20737461727400424F4F5450
:103090003A206F6C6564206661696C65640D0A0096
:1030A000424F4F543A20666C6173682073656C66BA
:1030B000207465737420736B697070656420284692
:1030C0004C4153485F53454C465F544553545F450C
:1030D0004E41424C453D30290D0A0000424F4F54AD
:1030E0003A2073642073656C662074657374207372
:1030F0006B6970706564202853445F4641544653A1
:103100005F44454D4F5F454E41424C453D30290D92
:103110000A0000002DE9F04F03460E4617463D48D1
:10312000006800F4E060B0F5A06F0FD006DCB0F5E9
:10313000407F0DD0B0F5806F0BD108E0B0F5C06FC7
:1031400003D0B0F5E06F04D100BF00BF00BF00BFE7
:1031500004E04FF4A06000F061F800BF00BF00BFC2
:103160002C480068C0F30220044620463246BC4684
:103170000146C1F1070ABAF1040F02D94FF0040A5F
:1031800001E0C1F1070AD14601F1040ABAF1070FC3
:1031900002D24FF0000A01E0A1F1030AD0464FF03D
:1031A000010A0AFA09FAAAF1010A0AEA020A0AFA63
:1031B00008FA4FF0010B0BFA08FBABF1010B0BEA1D
:1031C0000C0B4AEA0B0500BF1946284600290BDA0A
:1031D00002074FEA12680F4A0C3201F00F0CACF1F3
:1031E000040C02F80C8005E002074FEA126C0A4A50
:1031F00002F801C000BF00BF03F01F01012088409A
:103200005909890001F1E021C1F8000100BFBDE8C2
:10321000F08F00000CED00E000E400E00249014303
:10322000024A1160704700000000FA050CED00E052
:10323000034A0A400243034B1A60BFF34F8F7047A3
:1032400080FFFF1F08ED00E000B589B040F60140A7
:1032500001F02EFA41F2150001F02AFA40F615406D
:1032600001F026FA4FF4407204212848FFF788FB4A
:103270004FF44073012202212448FFF7C2FB4FF4B0
:103280004073022201212148FFF7E2FB2048FFF7AB
:103290007BFC00221F491E48FFF704FC722300221A
:1032A00011461B48FFF7DEFC1948FFF7A9FC4FF455
:1032B00080611748FFF7EDFB06211748FEF7CDFCAC
:1032C0006846FEF7A9FF40200690144802900020AF
:1032D00003900F48103000900120019000200490CE
:1032E000012007904FF4403008906A4606210A48B2
:1032F000FEF7E6FE06210848FEF78FFC01220621B4
:103300000548FEF777FC002009B000BD000402402C
:1033100000540040801A060000600240B0130020F4
:103320002DE9F04105460E4617463A4631462846F5
:1033300000F072F8044614B12046BDE8F0810D4853
:1033400000F084FE68B900F00FFD0B48FFF79DFC0C
:1033500042F21071084800F09FFE00F0EDFA0320E1
:10336000EBE7202206210548FEF7CAFC00F0E2FD4B
:10337000E3E70000A0860100005400400060024026
:1033800010B50748007808B9012010BD4FF400714E
:103390000448FCF773FF00F065FB0020F5E7000030
:1033A0008B010020CC15002010B51921014800F038
:1033B000BFFE10BDEC68000810B5202206210948A8
:1033C000FEF722FD082206210648FEF71DFD042215
:1033D00006210448FEF718FD012206210148FEF7E8
:1033E00013FD10BD0060024010B5102206210948EF
:1033F000FEF7CCFC042206210648FEF7C7FC022299
:1034000006210448FEF7C2FC802206210148FEF78F
:10341000BDFC10BD006002402DE9F04106460F469C
:1034200014461FB114B1B4F5007F02D90120BDE8E4
:10343000F081782000F04CFB05460DB12846F6E7F8
:103440001E48067022463946401CFCF7FEFE062147
:103450001B48FEF7AFFB202206211948FEF750FC5F
:10346000082206211648FEF74BFC042206211448C8
:10347000FEF746FC012206211148FEF741FCFFF74A
:103480009BFF0E4B002206210D48FEF708FE621C32
:1034900006210B48FEF7D1FE4FF480510948FFF793
:1034A000A7FB4FF400610748FFF79AFBFFF79CFF6B
:1034B00006210348FEF78EFB0020B8E7B01300207A
:1034C0000060024000540040F0B504460D4611462D
:1034D000202901DB7E2900DD2021A1F12006F1B2A7
:1034E00000201BE02618802E00D3F0BD33B101EB85
:1034F00041060C4F07EB4606365C07E001EB410640
:10350000084F07EB4606365CF643F6B22718DFF89D
:1035100018C00CEB87077E55461CF0B20628E1D395
:1035200000BFE2E7545E0008CC150020F0B5044669
:103530000D461046202801DB7E2800DD2020A0F16A
:103540002006F0B2002130E06618802E00D3F0BDD6
:1035500023B101EB0016174FBE5D05E001EB00162D
:10356000144FBE5DF643F6B26718DFF84CC00CEBA3
:1035700087077E556E1C042E15D22BB101EB001669
:1035800008360C4FBE5D06E001EB00160836094F09
:10359000BE5DF643F6B26718DFF81CC00CEB870C73
:1035A0006F1C0CF807604E1CF1B20829CCD300BF89
:1035B000CDE700007C600008CC1500202DE9F0412B
:1035C0008CB0FDF74BFF0B9006A8FEF7EFFF01F064
:1035D0005BFB0590089D2B26002D02DA2D266C4200
:1035E00000E02C469DF8280010B3642094FBF0F115
:1035F00000FB114794FBF0F833A000231A4619464C
:103600008DE841010397082000F0C8FB4FF47A7160
:10361000079890FBF1F7BDF9180030A100231A4676
:10362000CDE9010700910121082000F0B7FB15E06A
:103630002EA000231A4619460090082000F0D4FB63
:10364000BDF82E00BDF82C102CA20023CDE90021DE
:1036500002901A460121082000F0A0FB9DF82900E5
:10366000A8B14FF47A71099890FBF1F79DF82A0000
:1036700008B126A000E026A026A100231A46CDE925
:10368000001702900221082000F088FB07E026A026
:1036900000231A4602210090082000F0A5FB9DF8A7
:1036A00016109DF815009DF8142023A3CDE90032D3
:1036B000CDE9020100231A460321082000F06EFB29
:1036C0000CB0BDE8F081000050543130303A256331
:1036D000256C642E2530326C644300005241573A09
:1036E0002536642025346C646D560000505431300A
:1036F000303A2077616974696E6700004144433A4B
:10370000253475202534756D560000004F4E00009D
:103710004F4646004558545245463A25346C646D30
:1037200056202573000000004558545245463A2063
:1037300077616974696E670054494D453A253032A6
:10374000753A253032753A25303275002DE9FE4F35
:1037500080460D4691461E462E48007840B1B8F18D
:10376000800F05D2202D03D2C84501DCB54202DD11
:103770000120BDE8FE8FB9F1800F01D34FF07F0922
:10378000202E00D31F264FEAD50A4FEAD60B544607
:1037900037E0544502D105F0070000E00020029018
:1037A0005C4502D106F0070100E007210191FF21ED
:1037B000029801FA00F00199C1F10702FF21D140FE
:1037C00008400090474618E00C9850B1124800EBB2
:1037D0008700005D009908430F4901EB87010855F8
:1037E00009E00D4800EB8700005D009988430A4915
:1037F00001EB87010855781CC7B24F45E4DD601C1A
:10380000C4B25C45C5DD3146284600F031F90020E0
:10381000AFE700008B010020CC15002030B5034637
:1038200000240C701470002018E0012484401C4017
:1038300094B10870107002E01478641C147014784D
:10384000641C042C07D21478641C012505FA04F4C6
:103850001C40002CF0D130BD441CE0B20428E4D35D
:1038600000BFF8E7F0B504460D46002616701E703E
:1038700000211BE06E1806F003000126864026405A
:1038800096B11070187002E01E78761C1E701E78BB
:10389000761C042E07D21E78761C012707FA06F63E
:1038A0002640002EF0D1F0BD4E1CF1B20429E1D328
:1038B00000BFF8E72DE9F04105460E46314628469F
:1038C00000F070F906220A490020FFF729FD04469E
:1038D00014B12046BDE8F0813146284600F072F967
:1038E00007463A4603494020FFF71AFDF2E7000079
:1038F0008C010020CC170020024609B90120704736
:10390000082A04D1062008700820487008E0102A10
:1039100004D1082008701020487001E00120EEE773
:1039200048782023B3FBF0F0887008788023B3FB3D
:10393000F0F0C8700020E2E710B500F015FA4FF47F
:103940004073002201212C48FFF75BF84FF44073CD
:10395000022200212848FFF77BF84FF440712648E7
:10396000FFF73FF800240BE04FF480712248FFF787
:1039700036F84FF480712048FFF733F8601CC4B26A
:10398000092CF1D34FF480711B48FFF72AF84FF44C
:1039900000711948FFF723F84FF400711648FFF73C
:1039A00020F84FF4407204211348FEF7E9FF4FF46A
:1039B0004073012202211048FFF723F84FF44073AF
:1039C000022201210C48FFF743F80C48FFF7DCF80E
:1039D00000220B490948FFF765F8722300221146BF
:1039E0000648FFF73FF90548FFF70AF94FF48061F1
:1039F0000248FFF74EF810BD00040240005400409A
:103A0000801A060010B5FFF71FFC04460CB12046D3
:103A100010BDFFF7C9FC04460CB10120F8E70120F6
:103A20000A49087000200A4908700A4908700A49C2
:103A300008700A4908704FF400710948FCF71EFC31
:103A400000F010F800F092FAE2E700008B0100208D
:103A50009401002095010020930100209601002090
:103A6000CC1500200F2001490870704793010020F9
:103A700070B50246202A00D370BD202900D31F2133
:103A80008A4200DDF8E7D408CB08204609E001258A
:103A90008540EDB2054E36783543044E3570451CF1
:103AA000E8B29842F3DD00BFE6E700009301002092
:103AB00010B502460B460020114605E001248C405B
:103AC000E4B220434C1CE1B29942F7DD10BD000086
:103AD00070B5054642F21074782D01D0012070BDFA
:103AE00040F201612D48FFF7A4F8012801D1FFF74A
:103AF00023FF00BF40F201612848FFF79AF8012830
:103B000002D1601E041EF5D18CB9FFF715FF42F2F9
:103B1000107400BF40F201612048FFF78AF80128C5
:103B200002D1601E041EF5D10CB90320D7E71B4853
:103B3000FFF7A6F81A4A4FF4A061184800F09AFA65
:103B400018B9FFF7F9FE0320C9E76FF00102294613
:103B50001248FFF77DF8124800F056FA58B90F489E
:103B6000FFF793F842F210710C4800F095FAFFF756
:103B7000E3FE0120B3E740F201510848FFF745F8A2
:103B8000074A40F20751054800F074FA18B9FFF7E8
:103B9000D3FE0320A3E70020A1E70000005400406B
:103BA000A08601002122064B1A7000225A707F2243
:103BB0009A702222DA701A46107151717047000013
:103BC0008C01002070B503460C46002019460FE01A
:103BD000002209E0084D05EB82056D5C074E355467
:103BE000451CA8B2551CEAB2802AF3D34D1CE9B299
:103BF000A142EDDD70BD0000CC150020CC170020E7
:103C00007CB52548007808B901207CBD23480078A0
:103C100008B10220F9E72248007808B90020F4E74B
:103C20006B4601AA1F4801781D480078FFF71AFE6D
:103C30009DF800109DF80400FFF73AFF054618486C
:103C40000078A84316490870012014490870002024
:103C5000154908709DF800109DF80400FFF72AFE32
:103C6000044600200D4908709DF80000401C00F03B
:103C700003000C49087044B10948007828430849FA
:103C80000870094804702046BFE70548007808B16D
:103C90000220BAE70020B8E78B0100209401002041
:103CA0009301002096010020950100202DE9F84F96
:103CB00007460C46154698464FF0000B29480078F9
:103CC00020B11DB1802F01D2202C02D30120BDE8EC
:103CD000F88F04F0070008B10120F8E76946404674
:103CE000FFF70AFE08B10120F1E79DF8010020442A
:103CF000202801D90120EAE74FEAD4093E461CE01A
:103D00009DF800003044802800D919E0B8F1080F70
:103D100006D12A78494630460A9BFFF7D5FB05E0D5
:103D20002A78494630460A9BFFF700FC9DF80000C0
:103D30003044C6B26D1C4FF0010B28780028DFD14B
:103D400000BFBBF1000F01D10120C0E79DF80100C9
:103D50002044401E00F0FF0A51462046FFF788FE2F
:103D60000020B4E78B01002010B5FFF73DFB0621D2
:103D70000548FDF71FFF00210448FEF731FF002131
:103D80000248FEF735FF10BD0060024000540040BD
:103D900010B5FFF713FCFFF733FF10BD2DE9F0411D
:103DA000A2B005460E461746984629A801908021E4
:103DB00002A8019B289AFCF73DFE044600200190D2
:103DC000002C03DA204622B0BDE8F08102A8434669
:103DD0003A4631460090284600F006F810B14FF000
:103DE000FF30F0E72046EEE72DE9F0438FB00546BF
:103DF0000F4690469946169E1EB901200FB0BDE8A9
:103E0000F0830EA92846FFF777FD08B10120F5E7FA
:103E10000AA80BA90CAA0DABCDE90032CDE902101E
:103E20004B4642463946284600F03BF808B101208F
:103E3000E4E79DF838009DF82C1091FBF0F0C4B237
:103E4000162C00D31524002000909DF830009DF81A
:103E500028100844401EC3B29DF834009DF82C1071
:103E60000844401EC2B29DF830109DF83400FFF7A0
:103E70006DFC2246314604A8FCF70BFA002004A989
:103E800008559DF8100008B90020B7E701202B461F
:103E900004AA00909DF830109DF83400FFF706FF4B
:103EA000ACE72DE9F84F83460E4614461D46DDE982
:103EB0000C8ADDE90A7947B1B9F1000F05D0B8F1F4
:103EC000000F02D0BAF1000F02D10120BDE8F88F37
:103ED00069465846FFF710FD08B10120F6E79DF846
:103EE0000200B04203DD9DF80300A04201DC012086
:103EF000ECE79DF80000604338709DF801007043C6
:103F000089F800002DB19DF80300001BC0B2A84243
:103F100005DA3878C0F1800088F8000004E09DF8E8
:103F20000000684388F800009DF801008AF800004E
:103F30000020CBE710B5FFF717FF0A4800F0BAF8EA
:103F400004460948FEF7A1FE0649074800F0A4F818
:103F500018B9FFF7F1FC032010BD0CB1FFF7ECFC22
:103F60002046F9E7A08601000054004010B504483F
:103F7000007808B9012010BD00F004F8FBE700004C
:103F80008B0100207CB51C48007830B1C82000F0BF
:103F9000B3F804460CB120467CBD002017490870D8
:103FA00022E06A4601A916480078FFF737FC9DF821
:103FB00000109DF80400FFF77BFD054610480078CF
:103FC000A8430F4908709DF800109DF80400FFF702
:103FD00071FC044644B10A48007828430849087037
:103FE000064804702046D7E7054800780028D8D155
:103FF0000449087000BFCFE794010020950100201C
:10400000930100209601002010B5044615E040F20F
:1040100001510D48FEF70DFE012800D110BD40F200
:104020000A510948FEF705FE012806D140F20A515F
:104030000548FEF7EAFD0020F0E7201EA4F1010488
:10404000E5D100BFEAE700000054004010B5044687
:1040500007E0202206210648FDF771FE012800D165
:1040600010BD201EA4F10104F3D100BFF8E7000049
:104070000060024070B505460E46144606E0314623
:104080002846FEF7D6FD012800D170BD201EA4F100
:104090000104F4D100BFF8E7024605E0106800F41F
:1040A000007008B901207047081EA1F10101F5D187
:1040B00000BFF8E710B5044616E040F20A510D487B
:1040C000FEF7B7FD012806D140F20A510948FEF774
:1040D0009CFD012010BD40F202510648FEF7A9FDEB
:1040E000012801D10020F5E7201EA4F10104E4D14C
:1040F0000320EFE70054004070B5044601F046FA93
:10410000054606E001F042FA401BA04201D303201D
:1041100070BD054800780028F4D10448007808B143
:104120000120F5E70020F3E794010020950100202D
:1041300070B504460D4604B10DB9012070BD2A4684
:1041400021460020FFF7ECF8F8E70000034800687C
:1041500040F4807001490860704700000070004022
:1041600070B50446B4F5C82F02DA4FF4C82403E052
:104170000548844200DD0446204600F007F8054665
:10418000284600F021F870BDC00D190070B5064634
:10419000A6F5C820C517044610220023204629464C
:1041A000FCF722F804460D46064BE41845F10005DD
:1041B00000221146A21A75EB010000DA0024204605
:1041C00070BD0000B63901002DE9F05F06462248B7
:1041D0004068B04203DB20480068BDE8F09F01243E
:1041E00034E0601E1C4901EBC005084600EBC40B1F
:1041F000DBF80400B04228DB6868301A4FEAE07848
:104200000746DBF804006968A0EB0109DBF8000051
:104210002968A0EB010AB9F1000F01D12868DCE799
:104220004FEAEA733946A1FB0A0C08FB0AC207FBF6
:10423000032807464A464FEAE97338464146FBF7EA
:10424000D3FF07462868C019C7E7641C0E2CC8D3E3
:104250000148806EC1E70000285D00082DE9F041AB
:1042600005461D27002400261A48046801E0194865
:10427000046804F045000028F9D004F0010030B1D2
:104280001127012001F000F83846BDE8F08104F064
:10429000040028B11327042000F0F6FF3846F4E7A5
:1042A00000F0C6FFA84202D008273846EDE70A48CA
:1042B00000F0EAFF002001F005F80646074830400C
:1042C00010B91D273846E0E7304600F009F80746E8
:1042D0003846DAE7342C0140FF07C00008E0F9FD5A
:1042E00001461C2001F000420AB100204EE001F01E
:1042F00080420AB1012049E001F000520AB10220D7
:1043000044E001F080520AB103203FE001F0006276
:104310000AB104203AE001F080620AB1052035E0DC
:1043200001F080720AB1062030E001F400020AB107
:1043300007202BE001F480020AB1082026E001F4F6
:1043400000120AB1092021E001F480120AB10A200A
:104350001CE001F400220AB10B2017E001F48032C6
:104360000AB10C2012E001F400420AB10D200DE068
:1043700001F480420AB10E2008E001F400520AB1B3
:104380000F2003E001F0080202B110207047000086
:104390000348006840F080700149086070470000E1
:1043A000743802400348006820F4803001490860F6
:1043B00070470000703802400348006840F48030C5
:1043C0000149086070470000703802402DE9F04F45
:1043D0008CB0064600200A903EA090E8004CC068D1
:1043E000CDE905BECDF810A007900FF2EC0ADAE98E
:1043F000000ACDE9020A0FF2E00ADAE9000ACDE983
:10440000000A38480068C0F381000B900B9820B177
:10441000012804D0022828D103E0334927E033499A
:1044200025E03048001F006800F03F072D48001FBE
:104430000068C0F3881C2B48001F0068C0F30140CF
:10444000401C4FEA40092748001F006800F480081C
:10445000B8F5800F01D1254B00E0234BB3FBF7F0FB
:1044600000FB0CF0B0FBF9F101E01F4900BF00BFF9
:104470001C480068C0F3031404A8055D21FA05F286
:1044800018480068C0F3822402A8055D22FA05F0EE
:10449000099014480068C0F342341DF8045022FA11
:1044A00005F0089036B1012E06D0022E06D0032E5C
:1044B0000AD106E00A9108E00A9206E009980A90FB
:1044C00003E008980A9000E000BF00BF0A980CB013
:1044D000BDE8F08F000000000000000001020304AE
:1044E00006070809083802400024F40040787D01DE
:1044F00010B501460020074B03EB9112D2F80028BB
:1045000001F01F040123A3401A400AB1012000E07A
:10451000002010BD00300240044A116821F008015B
:1045200041EA0002014B1A607047000070380240F7
:10453000074A02EB9011D1F8001800F01F03012286
:104540009A401143024B03EB9012C2F800187047D7
:1045500000300240F0B506460024002700251C2E3E
:104560007DD007DCB6B3102E10D0182E67D01A2ECF
:1045700076D176E0B6F5E05F19D0B6F5E85F4CD0BD
:10458000A6F5405010380028F2D134E004E01120A4
:10459000FFF7AEFF0546641C1DB94FF6FF7084425D
:1045A000F5D11120FFF7A4FF00B101277AE005E063
:1045B00041F60140FFF79CFF0546641C1DB96FF0F2
:1045C00070408442F4D141F60140FFF791FF00B101
:1045D000012767E0FFE704E00120FFF789FF0546B8
:1045E000641C15B9B4F5A06FF6D10120FFF780FF68
:1045F00000B1012756E005E043F21100FFF778FF14
:104600000546641C15B929488442F5D143F21100CE
:10461000FFF76EFF00B1012744E005E041F60150CD
:10462000FFF766FF0546641C15B920488442F5D1A2
:1046300041F60150FFF75CFF00B1012732E004E0D2
:104640001920FFF755FF0546641C15B91748844229
:10465000F6D11920FFF74CFF00B1012722E010E04E
:104660001FE004E01B20FFF743FF0546641C15B95B
:104670000E488442F6D11B20FFF73AFF00B1012714
:1046800010E004E01D20FFF733FF0546641C15B958
:1046900006488442F6D11D20FFF72AFF00B101270A
:1046A00000E000BF00BF3846F0BD0000FFFF0F0074
:1046B000074A02EB9011D1F8001800F01F03012205
:1046C0009A401143024B03EB9012C2F80018704756
:1046D00000300240074A02EB9011D1F8001800F0B8
:1046E0001F0301229A409143024B03EB9012C2F840
:1046F0000018704700300240074A02EB9011D1F8D1
:10470000001800F01F0301229A401143024B03EBF3
:104710009012C2F80018704700300240044A116835
:1047200021F4407141EA0002014B1A607047000019
:1047300070380240014609B9002070478889FCE7BB
:1047400008B1026802B9704782898A4200DA818919
:1047500002890A44C3881A4002818289521A8281DE
:1047600000BFF0E770B504460E46154604B970BDAB
:104770002660A580681EE080002020816081A081E5
:104780001EB1284600F05BF818B900202060A08018
:10479000E08000BFEBE7014609B900207047888937
:1047A0008A88904201DB0120F8E70020F6E7024604
:1047B000D0884B1C184070472DE9F04104460E4646
:1047C0001746002514B1206800B116B90020BDE8D5
:1047D000F0810DE021892068405C705521892046D8
:1047E000FFF7E5FF2081A089401EA081681C85B2EB
:1047F000BD4202DAA0890028ECD12846E7E701464D
:1048000019B1086808B1888908B9002070478A89F9
:10481000088910448B88984203D988880B89C01A6C
:1048200082B21046F2E7014619B1086808B18889DA
:1048300008B9002070470A8908681044FAE7014661
:1048400021B1481E084008B9012070470020FCE74C
:104850002DE9F04104460E461746002514B12068A4
:1048600000B116B90020BDE8F0810DE0705D6289ED
:104870002168885461892046FFF799FF6081A089EB
:10488000401CA081681C85B2BD4203DAA089A188C2
:104890008842EBDB2846E6E710B500F0E9FA10BDE8
:1048A000014601F00F000A1102EB820200EB420008
:1048B000C0B27047CA200849086053200860064803
:1048C0001C38006840F0200003491C390860FF20B4
:1048D000014908607047000024280040F0B50446F4
:1048E0000B462146032B01D2481E81B26420B1FB46
:1048F000F0F001EB9106301A4FF4C876B1FBF6F6F2
:104900000644581E064F385C304485180720B5FB16
:10491000F0F600FB165505B900E02846C0B2F0BD20
:10492000B25D000810B500200D49087000F0ACF829
:1049300048B1FFF741FDFFF735FD00F081F810B1F8
:104940004FF0FF3010BD41F60F40FFF7B1FE00F011
:104950003BFA10B96FF00100F4E70020F2E7000025
:104960008801002010B54FF0FF3441F21C00FFF722
:104970009FFEFFF7EBFB002011490870114800680B
:1049800043F2F121884206D100F052F818B100F04C
:104990001BF804460CE0FFF70FFDFFF703FDFFF7E0
:1049A000C1FF044624B900F03FFA044604B11E3C9E
:1049B00014B9012002490870FFF7EAFC204610BD37
:1049C000890100205028004010B500F031F804465D
:1049D000B4F5807F09D1FF20124908607F20124979
:1049E000086001201149087010E0B4F5007F0AD179
:1049F00040F23F100B49086063200B490860022019
:104A00000A49087002E04FF0FF3010BD41F60F4038
:104A1000FFF74EFE00F0D8F910B96FF00100F4E78F
:104A20000020F2E78401002080010020880100209E
:104A30000248006800F4407070470000703802407F
:104A400010B54FF4E850FFF773FD4FF4E850FFF74F
:104A500081FD10B94FF0FF3010BD4FF40070FFF72B
:104A60005DFE40F23F10054908606320044908607C
:104A70000220044908700020EEE7000084010020B5
:104A8000800100208801002010B50820FFF744FDB8
:104A90004FF4E050FFF74CFD4FF4E050FFF75AFDA4
:104AA00010B94FF0FF3010BD4FF48070FFF736FEA5
:104AB000FF20054908607F2004490860012004495F
:104AC00008700020EFE70000840100208001002032
:104AD0008801002030B50021002200230024154D5C
:104AE00029682D1D2A68134D10352B68114D083586
:104AF0002C68150C0570C2F30425457002F03F05C3
:104B00008570C2F34235C570C1F305450571C1F327
:104B10000625457101F07F058571C3F306450581C2
:104B2000C3F30E05458101F48005C56004F040051E
:104B3000056130BD0028004070B504460CB9002066
:104B400070BD2088B0F5FA6F04D3208840F6330199
:104B5000884201D90020F3E7A178208800F070F89E
:104B60000546E07810B1E078A84201DD0020E7E7D3
:104B70002079072801DD0020E2E70120E0E7028834
:104B80000A8082788A70C278CA7002790A71704786
:104B900042790A7082794A70C2798A70704700003F
:104BA00070B505460C462E792EB9EA78A978288882
:104BB000FFF794FE064613480088208112480088BB
:104BC00060812978A1F5FA61C8B200F04FF8207031
:104BD000E670A87800F04AF86070E87800F046F8CF
:104BE000A07000202061E060687900F03FF820713B
:104BF000A87900F03BF86071E87900F037F8A0710F
:104C000070BD000080010020840100203EB50446F4
:104C10000CB900203EBD01A92046FFF7B0FF694650
:104C20002046FFF7B5FF01A8FFF786FF28B16846C9
:104C300000F05AF908B10120ECE70020EAE7000093
:104C400070B505460C460CB10C2C01D9002070BD86
:104C5000022C05D1284600F05DF808B11D20F6E7CA
:104C6000601E0149085CF2E7A65D000801460A20C3
:104C7000B1FBF0F200FB12100A22B1FBF2F240EAA3
:104C80000210C0B27047000008B50A4800788DF8DD
:104C90000000084840788DF80100064880788DF8BB
:104CA0000200BDF8001008469DF8021040EA0140DD
:104CB00008BD0000DE00002008B54FF480420092DD
:104CC000002100200D4A126802F040029AB90B4AF6
:104CD000126842F08002094B1A6000BF074A12684E
:104CE00002F04001009A521E00920AB10029F5D04C
:104CF00011B1012000E0012008BD00000C28004097
:104D00000348006820F080000149086070470000F7
:104D10000C28004001464FF4C870B1FBF0F200FBD4
:104D2000121008B9012070476420B1FBF0F200FBBB
:104D3000121008B90020F6E701F0030008B90120BD
:104D4000F1E70020EFE770B504460D462078FFF745
:104D5000A7FD00F5FA6028806078FFF7A1FDA87034
:104D6000A078FFF79DFDE870E07828712079FFF7C3
:104D700097FD68716079FFF793FDA871A079FFF73F
:104D80008FFDE87170BD000010B586B004461CB9F7
:104D90004FF0FF3006B010BD0A48007848B9002037
:104DA0002080A070E07020716071A071E071801EA1
:104DB000F0E701A8FFF78EFE214601A8FFF7C3FF29
:104DC0000020E7E78901002008B54FF40042009277
:104DD00000210020134A126802F0200202BBCA22FE
:104DE000104B1C331A6053221A600E4A121D1268AF
:104DF00022F020020B4B1B1D1A6000BF094A121D36
:104E0000126802F02001009A521E00920AB1002995
:104E1000F4D001B10120FF22024B1C331A6000E0E4
:104E2000012008BD0828004010B5024800F06EF8C7
:104E300010BD0000BE5D000806480078012801D1C1
:104E400005A0704703480078022801D104A0F8E7C4
:104E500005A0F6E7880100204C5854414C000000A2
:104E600049524333324B00004E4F4E450000000084
:104E70001CB56846FFF788FF00B11CBDBDF80000F7
:104E8000164908809DF8020088709DF80300C870DC
:104E90009DF8040008719DF8050048719DF8060012
:104EA00088719DF80700C871BDF800000C490880A2
:104EB0009DF8020088709DF80300C8709DF80400FA
:104EC00008719DF80500074908709DF806004870B4
:104ED0009DF80700887000BFCFE70000E2000020C7
:104EE000D8000020DE000020014609B900207047EC
:104EF0000878172805D848783B2802D888783B28B6
:104F000001D90020F3E70120F1E7000070B586B079
:104F100006463046FFF77AFE18B94FF0FF3006B06C
:104F200070BD01A93046FFF73BFE9DF808104FF415
:104F30007C1202EA0141049808439DF809104FF4DD
:104F4000FE4202EA012108439DF80A1001F07F01A8
:104F500040EA01049DF804004FF47F0101EA00409B
:104F60009DF807104FF4604202EA413108439DF872
:104F700005104FF4F85202EA012108439DF806108B
:104F800001F03F0140EA0105CA201F490860532093
:104F90000860FFF791FE28B9FF201B4908606FF0F9
:104FA0000100BCE7BDF80C004FF4FE0101EA00402F
:104FB000BDF80E10C1F30E010843134914390860FF
:104FC000114824380460001D0560001D006820F0B1
:104FD00040000D491C3908600846006805990843DF
:104FE00009491C390860FFF78BFEFF20064908605D
:104FF000FFF7EAFE08B9FFF75DFC43F2F120024932
:105000002C31086000208AE72428004010B500F009
:10501000BDFA0446002006E000EB4001034A02EB23
:1050200081018C60401C0728F6D310BDEC000020E5
:1050300070B500F0ABFA054600243CE02BE004EB31
:1050400044001E4901EB8000806804EB44011B4AC8
:1050500002EB81014968084404EB440102EB810141
:10506000886004EB4400114601EB80008068281A38
:1050700004EB440102EB81014968884205D304EB4B
:105080004400114601EB8000856004EB44010B4AAB
:1050900052F82100804704EB4400084901EB8000EE
:1050A0008068281A04EB4401044A02EB8101496834
:1050B0008842C4D2641C072CC0D370BDEC00002011
:1050C00010B5002004490870002211463120FEF777
:1050D00021F8002010BD00004001002010B51D2067
:1050E000464908704FF4807000F0E2F8E0B144489F
:1050F0000068012804D100F089F84049087002E0F6
:105100001D203E4908704FF4807000F0CBF84CF23F
:105110003A3000F0BFF801203A49086000203A49CF
:1051200008603648007810BD022000F0C1F878B160
:10513000022000F0B7F84CF23A3000F0ABF8002053
:105140003149086012202D49087008460078EAE7C6
:10515000082000F0ADF878B1082000F0A3F84CF278
:105160003A3000F097F800202749086014202349BE
:10517000087008460078D6E74FF4007000F098F801
:1051800080B14FF4007000F08DF84CF23A3000F02E
:1051900081F800201C49086017201849087008464B
:1051A0000078C0E7102000F083F878B1102000F0FC
:1051B00079F84CF23A3000F06DF80020124908609E
:1051C00015200E49087008460078ACE7202000F052
:1051D0006FF878B1202000F065F84CF23A3000F01A
:1051E00059F800200849086016200449087008464C
:1051F000007898E70148007895E70000C00100209A
:10520000BC010020C4010020C801002010B51D24ED
:10521000402200210C2000F011F8002000F070F86E
:1052200000F028F80C20FFF719F80446204610BDBE
:1052300001480068C0B27047102C014030B50346E9
:1052400000200B4C246824F48064094D2C602C1F32
:10525000246800242D1F2C602C462160241D20680A
:1052600020F0FF0043EA020420432C1D206030BDE3
:105270000C2C01400348006840F48060014908603C
:10528000704700000C2C0140014908607047000085
:10529000382C0140024909688143014A1160704776
:1052A0003C2C01400149086070470000382C014047
:1052B00001460020024A12680A4002B101207047EC
:1052C000342C01400146002031B1012907D00229C8
:1052D00009D003290FD10AE0084A10680CE0074AF8
:1052E000121D106808E0054A0832106804E0034AFD
:1052F0000C32106800E000BF00BF7047142C014062
:105300000549096821F44071034A11601146096892
:1053100001431160704700000C2C0140016841F00E
:105320004001016070470146C86880B27047C160A3
:105330007047000010B504462749601A8C422CD0F3
:1053400009DC26482044B0B1B0F5806F1CD0B0F520
:10535000784F3DD106E0B0F5E05F27D0B0F5005FB3
:1053600036D12CE040F60C10FFF7C6F940F60C10D1
:10537000FFF7B0F92DE040F60E00FFF7BDF940F65B
:105380000E00FFF7A7F924E040F60F00FFF7B4F98D
:1053900040F60F00FFF79EF91BE040F60D10FFF7F7
:1053A000ABF940F60D10FFF795F912E040F6141036
:1053B000FFF7A2F940F61410FFF78CF909E040F668
:1053C0001510FFF799F940F61510FFF783F900E083
:1053D00000BF00BF10BD00000034014000C8FFBF87
:1053E0000246002093680B400BB1012000E0002032
:1053F000704702460020106800F441500B681843C3
:105400004B6818438B681843CB6818430B691843E3
:105410004B6918438B6918431060D36923F4006308
:10542000D361704708B5002000213F4A126842F45A
:1054300080323D4B1A6000BF401C3B4A126802F4A8
:10544000003119B94FF6FF729042F5D1364A126811
:1054500002F4003232B900BF334A126802F400325B
:10546000002AF9D0304A4032126842F080522E4B66
:1054700040331A602D4A126842F440422B4B1A60A6
:10548000294A08321268284B08331A601A461268F3
:1054900042F400421A601A46126842F4A0521A609E
:1054A000234A1B1F1A601A1F126842F080721B1FCA
:1054B0001A6000BF1C4A126802F00072002AF9D07C
:1054C0001A4A126842F48032184B1A6000BF174A19
:1054D000526802F48032002AF9D0144A126842F469
:1054E0000032124B1A6000BF104A526802F40032B8
:1054F000002AF9D00C4A083212680092009A22F071
:1055000003020092009A42F002020092064B083316
:10551000009A1A6000BF044A0832126802F00802BA
:10552000002AF8D008BD000000380240007000409A
:105530001978400A10B5FFF775FF10BD10B5124875
:1055400000684FF47A71B0FBF1F4601EB0F1807F17
:1055500001D301200FE0601E4FF0E02148610F21D0
:105560004FF0FF30FBF77AF900204FF0E02188611F
:1055700007200861002008B100BFFEE70021481E97
:10558000FBF76CF910BD00006801002001480068BD
:105590007047000064010020002002490880024991
:1055A00008607047440100204801002010B50446FF
:1055B000224602A1044800F0E7F810BD434D443AEA
:1055C0002025730D0A0000000010014010B50C48A2
:1055D000008800B910BD00200A49094A1288885481
:1055E0000948006820B1084607490968884702E071
:1055F0000448FFF7DBFF00200149088000BFE9E70E
:1056000044010020CC0100204801002010B54FF4D7
:1056100000622C492C48FFF7A5F84FF400622B4993
:105620002B48FFF79FF84FF44060FFF741F841F235
:105630000410FFF73DF840F61640FFF739F84FF435
:10564000C06207212348FDF79BF94FF4C063012294
:1056500002212048FDF7D5F94FF4C0630222002152
:105660001C48FDF7F5F91C4800F0E0F94FF4E13172
:10567000194800F061F90421174800F091FA082157
:10568000154800F0C7FA00F093FA00F0CBFA402179
:10569000114800F039FA80210F4800F03FFA0E4817
:1056A00000F046FA002211462520FDF733FD0022C6
:1056B00001214620FDF72EFD4FF44171064800F010
:1056C00045FA10BD90030020900B0020A00B002095
:1056D000A0130020000002400010014010B5054951
:1056E000054800F040FA20B1034800F099F900F0B5
:1056F00005F810BD040304000010014070B502213C
:105700001D48FCF7A2FDC0F5807084B2E4B200F041
:1057100014FA05461948007818B1284600F013FA23
:1057200070BD012015490870284600F00CFA13E0FE
:10573000134814490988465C00F0FFF905463046D5
:1057400000F090F80F480088401CC0B20D49088056
:10575000284600F0F8F900BF0A480088A042E7D1C7
:1057600000F0EBF90546002004490870284600F0D7
:10577000EAF900BFD4E70000006402407201002093
:1057800090020020700100200FB430B5ADF5017D0E
:10579000054686A800904FF4007101A8009B859AE9
:1057A000FBF748F9044600200090002C05DC204659
:1057B0000DF5017D30BC5DF814FBB4F5007F01D31D
:1057C00040F2FF14A1B201A800F090F8F0E7000049
:1057D0002DE9F04104460D46002604B115B900201C
:1057E000BDE8F081FFF78AFF00F0A7F907462A46D7
:1057F00021460448FEF7E0FF0646384600F0A3F9CC
:105800003046EDE7900B002010B504460D2C01D07A
:105810000A2C02D1FFF7DAFE10BD0B4800887F2862
:1058200009D20A4808490988445407480088401C9E
:105830000549088006E000200349088004A10848C3
:10584000FFF7A2FF00BFE7E744010020CC010020E2
:10585000434D4420746F6F206C6F6E670D0A00001B
:105860000010014001B50848FEF795FF28B1074830
:105870000068401C0549086008BD012269460248CD
:10588000FEF7E6FF00BFF7E7900B0020780100204D
:1058900030B591B0FFF732FF00BF402101A8FFF7FC
:1058A00097FF0446002505E001A9485DFFF7ACFF1E
:1058B000681C85B2A542F7DB402CEED011B030BD9C
:1058C00010B5202207210848FCF7BDFA50B120226C
:1058D00007210548FCF798FA07210348FCF76AF905
:1058E00000F0D2F910BD0000006402402DE9F04143
:1058F00005460C46002605B114B90020BDE8F0812C
:1059000000F01BF90746224629460948FEF7A0FF8A
:105910000646A64205DAA01B06490968084405495F
:10592000086000F0C7F9384600F00DF93046E5E7A9
:10593000A01300207C0100202DE9F04704460D460D
:105940000027B846B94600263349601A8C4235D044
:105950000CDC32482044E8B1B0F5806F1FD0B0F5C0
:10596000006F21D0B0F5406F32D122E0B0F5806FEA
:1059700029D0B0F5184F03D0B0F51C4F28D104E062
:105980000320FEF723FD074623E00320FEF71EFD5C
:1059900007461EE00220FEF719FD074619E0022027
:1059A000FEF714FD074614E00220FEF70FFD074640
:1059B0000FE00220FEF70AFD07460AE00220FEF78C
:1059C00005FD074605E00220FEF700FD074600E062
:1059D00000BF00BFE06800F4004070B1780000EB49
:1059E0005500B0FBF5F64FF6F07006EA0008C6F376
:1059F000420948EA0900A0600CE007EB5500B0FB43
:105A0000F5F64FF6F07006EA000806F00F0948EACE
:105A10000900A060BDE8F0870078004000BCFFBF2F
:105A200001464868C0F308007047000010B50446FE
:105A30003349601A8C424DD00CDC32482044E0B12E
:105A4000B0F5806F22D0B0F5006F31D0B0F5406F67
:105A500052D136E0B0F5806F45D0B0F5184F03D085
:105A6000B0F51C4F48D11AE040F60410FEF744FE92
:105A700040F60410FEF72EFE3FE040F61100FEF760
:105A80003BFE40F61100FEF725FE36E040F6120020
:105A9000FEF732FE40F61200FEF71CFE2DE040F647
:105AA0000510FEF729FE40F60510FEF713FE24E070
:105AB00040F61300FEF720FE40F61300FEF70AFE44
:105AC0001BE040F61400FEF717FE40F61400FEF748
:105AD00001FE12E040F61E00FEF70EFE40F61E002C
